:1000000045C000004BC0000049C0000047C00000D0
:1000100045C0000043C0000041C000003FC00000D8
:100020003DC000003BC0000039C0000037C00000E8
:1000300035C0000033C0000031C000002FC00000F8
:100040002DC000002BC0000029C0000027C0000008
:1000500025C0000023C0000021C000001FC0000018
:100060001DC000001BC0000019C0000017C0000028
:1000700015C0000013C0000011C000000FC0000038
:100080000DC000000BC0000009C0000011241FBEFD
:10009000CFEFD0E1DEBFCDBF67D069C0B1CF80EF79
:1000A00087BB88BB8CEF81BB82BB0895892B11F085
:1000B000C79A01C0C798452B11F0C49A01C0C498D3
:1000C000672B11F0C69A01C0C698232B11F0C59A70
:1000D0000895C598089520E030E041E050E060E0E8
:1000E00070E081E090E0E2DF2FEF83ED90E32150BC
:1000F00080409040E1F700C000000895819914C04D
:10010000EADF20E030E041E050E061E070E081E0D3
:1001100090E0CCDF2FEF83ED90E3215080409040C2
:10012000E1F700C000000895809914C0D4DF21E0F9
:1001300030E041E050E060E070E081E090E0B6DF68
:100140002FEF83ED90E3215080409040E1F700C015
:100150000000089521E030E041E050E061E070E00F
:1001600081E090E0A3CF08959ADFC8DFFECFF89436
:02017000FFCFBF
:00000001FF
