:1000000045C000004BC0000049C0000047C00000D0
:1000100045C0000043C0000041C000003FC00000D8
:100020003DC000003BC0000039C0000037C00000E8
:1000300035C0000033C0000031C000002FC00000F8
:100040002DC000002BC0000029C0000027C0000008
:1000500025C0000023C0000021C000001FC0000018
:100060001DC000001BC0000019C0000017C0000028
:1000700015C0000013C0000011C000000FC0000038
:100080000DC000000BC0000009C0000011241FBEFD
:10009000CFEFD0E1DEBFCDBF8CD08EC0B1CF80EF2F
:1000A00087BB80E688BB8CEF81BB82BB0895892B20
:1000B00011F0C79A01C0C798452B11F0C49A01C02E
:1000C000C498672B11F0C69A01C0C698232B11F073
:1000D000C59A0895C598089520E030E040E050E0CA
:1000E00060E070E080E090E0E2DF2FEF88EF95E1E4
:1000F000215080409040E1F700C0000008958199B0
:1001000026C021E030E040E050E061E070E080E0B7
:1001100090E0CDDF2FEF87E893E1215080409040C1
:10012000E1F700C00000D8DF21E030E040E050E01F
:1001300060E070E080E090E0BADF2FEF87E893E1C5
:10014000215080409040E1F700C000000895809960
:1001500026C021E030E040E050E061E070E080E067
:1001600090E0A5DF2FEF87E893E121508040904099
:10017000E1F700C00000B0DF20E030E040E050E0F8
:1001800061E070E080E090E092DF2FEF87E893E19C
:10019000215080409040E1F700C00000089521E028
:1001A00030E040E050E061E070E080E090E07FCF40
:0C01B000089575DFA4DFFECFF894FFCFA8
:00000001FF
